{
  "contractName": "Ticket",
  "abi": [
    {
      "inputs": [
        {
          "internalType": "uint256",
          "name": "",
          "type": "uint256"
        }
      ],
      "name": "tickets",
      "outputs": [
        {
          "internalType": "address",
          "name": "owner",
          "type": "address"
        },
        {
          "internalType": "string",
          "name": "movieName",
          "type": "string"
        },
        {
          "internalType": "uint256",
          "name": "timestamp",
          "type": "uint256"
        }
      ],
      "stateMutability": "view",
      "type": "function"
    },
    {
      "inputs": [
        {
          "internalType": "string",
          "name": "_movieName",
          "type": "string"
        }
      ],
      "name": "createTicket",
      "outputs": [],
      "stateMutability": "nonpayable",
      "type": "function"
    }
  ],
  "bytecode": "0x608060405234801561000f575f80fd5b506108158061001d5f395ff3fe608060405234801561000f575f80fd5b5060043610610034575f3560e01c806350b44712146100385780636897082f1461006a575b5f80fd5b610052600480360381019061004d9190610264565b610086565b60405161006193929190610367565b60405180910390f35b610084600480360381019061007f91906104cf565b61015f565b005b5f8181548110610094575f80fd5b905f5260205f2090600302015f91509050805f015f9054906101000a900473ffffffffffffffffffffffffffffffffffffffff16908060010180546100d890610543565b80601f016020809104026020016040519081016040528092919081815260200182805461010490610543565b801561014f5780601f106101265761010080835404028352916020019161014f565b820191905f5260205f20905b81548152906001019060200180831161013257829003601f168201915b5050505050908060020154905083565b5f60405180606001604052803373ffffffffffffffffffffffffffffffffffffffff16815260200183815260200142815250908060018154018082558091505060019003905f5260205f2090600302015f909190919091505f820151815f015f6101000a81548173ffffffffffffffffffffffffffffffffffffffff021916908373ffffffffffffffffffffffffffffffffffffffff16021790555060208201518160010190816102109190610710565b5060408201518160020155505050565b5f604051905090565b5f80fd5b5f80fd5b5f819050919050565b61024381610231565b811461024d575f80fd5b50565b5f8135905061025e8161023a565b92915050565b5f6020828403121561027957610278610229565b5b5f61028684828501610250565b91505092915050565b5f73ffffffffffffffffffffffffffffffffffffffff82169050919050565b5f6102b88261028f565b9050919050565b6102c8816102ae565b82525050565b5f81519050919050565b5f82825260208201905092915050565b5f5b838110156103055780820151818401526020810190506102ea565b5f8484015250505050565b5f601f19601f8301169050919050565b5f61032a826102ce565b61033481856102d8565b93506103448185602086016102e8565b61034d81610310565b840191505092915050565b61036181610231565b82525050565b5f60608201905061037a5f8301866102bf565b818103602083015261038c8185610320565b905061039b6040830184610358565b949350505050565b5f80fd5b5f80fd5b7f4e487b71000000000000000000000000000000000000000000000000000000005f52604160045260245ffd5b6103e182610310565b810181811067ffffffffffffffff82111715610400576103ff6103ab565b5b80604052505050565b5f610412610220565b905061041e82826103d8565b919050565b5f67ffffffffffffffff82111561043d5761043c6103ab565b5b61044682610310565b9050602081019050919050565b828183375f83830152505050565b5f61047361046e84610423565b610409565b90508281526020810184848401111561048f5761048e6103a7565b5b61049a848285610453565b509392505050565b5f82601f8301126104b6576104b56103a3565b5b81356104c6848260208601610461565b91505092915050565b5f602082840312156104e4576104e3610229565b5b5f82013567ffffffffffffffff8111156105015761050061022d565b5b61050d848285016104a2565b91505092915050565b7f4e487b71000000000000000000000000000000000000000000000000000000005f52602260045260245ffd5b5f600282049050600182168061055a57607f821691505b60208210810361056d5761056c610516565b5b50919050565b5f819050815f5260205f209050919050565b5f6020601f8301049050919050565b5f82821b905092915050565b5f600883026105cf7fffffffffffffffffffffffffffffffffffffffffffffffffffffffffffffffff82610594565b6105d98683610594565b95508019841693508086168417925050509392505050565b5f819050919050565b5f61061461060f61060a84610231565b6105f1565b610231565b9050919050565b5f819050919050565b61062d836105fa565b6106416106398261061b565b8484546105a0565b825550505050565b5f90565b610655610649565b610660818484610624565b505050565b5b81811015610683576106785f8261064d565b600181019050610666565b5050565b601f8211156106c85761069981610573565b6106a284610585565b810160208510156106b1578190505b6106c56106bd85610585565b830182610665565b50505b505050565b5f82821c905092915050565b5f6106e85f19846008026106cd565b1980831691505092915050565b5f61070083836106d9565b9150826002028217905092915050565b610719826102ce565b67ffffffffffffffff811115610732576107316103ab565b5b61073c8254610543565b610747828285610687565b5f60209050601f831160018114610778575f8415610766578287015190505b61077085826106f5565b8655506107d7565b601f19841661078686610573565b5f5b828110156107ad57848901518255600182019150602085019450602081019050610788565b868310156107ca57848901516107c6601f8916826106d9565b8355505b6001600288020188555050505b50505050505056fea2646970667358221220b6a520b15d5726ed692bde18f59a6eec5a9f0655e6969d86809448df9e6e010d64736f6c63430008150033",
  "immutableReferences": {},
  "source": "// SPDX-License-Identifier: MIT\npragma solidity ^0.8.0;\n\n// contract Tickets {\n//   struct TicketData {\n//     string owner;\n//     string title;\n//     uint256 price;\n//     string seat;\n//     string date;\n//   }\n\n//   // TicketData[] public tickets;\n\n//   // function createTicket(\n//   //   string memory _owner,\n//   //   string memory _title,\n//   //   uint256 _price,\n//   //   string memory _seat,\n//   //   string memory _date\n//   // ) public {\n//   //   TicketData memory newTicket = TicketData({\n//   //     owner: _owner,\n//   //     title: _title,\n//   //     price: _price,\n//   //     seat: _seat,\n//   //     date: _date\n//   //   });\n\n//   //   tickets.push(newTicket);\n//   // }\n\n//   // function getTicketsByOwnerId(string memory _owner) public view returns (TicketData[] memory) {\n//   //   TicketData[] memory ownerTickets = new TicketData[](tickets.length);\n//   //   uint256 counter = 0;\n//   //   for (uint256 i = 0; i < tickets.length; i++) {\n//   //     if (keccak256(abi.encodePacked(tickets[i].owner)) == keccak256(abi.encodePacked(_owner))) {\n//   //       ownerTickets[counter] = tickets[i];\n//   //       counter++;\n//   //     }\n//   //   }\n//   //   return ownerTickets;\n//   // }\n// }\ncontract Ticket {\n struct MovieTicket {\n address owner;\n string movieName;\n uint256 timestamp;\n }\nMovieTicket[] public tickets;\nfunction createTicket(string memory _movieName) public {\n tickets.push(MovieTicket(msg.sender, _movieName, block.timestamp));\n }\n }",
  "sourcePath": "/Users/seongbin/Desktop/Folder/Project/securityprotject/blockchain_v2/contracts/Tickets.sol",
  "compiler": {
    "name": "solc",
    "version": "0.8.21+commit.d9974bed.Emscripten.clang"
  },
  "schemaVersion": "3.4.16",
  "updatedAt": "2023-11-21T23:46:09.125Z",
  "devdoc": {
    "kind": "dev",
    "methods": {},
    "version": 1
  },
  "userdoc": {
    "kind": "user",
    "methods": {},
    "version": 1
  }
}