{
  "contractName": "Tickets",
  "abi": [
    {
      "inputs": [],
      "stateMutability": "nonpayable",
      "type": "constructor"
    },
    {
      "inputs": [
        {
          "internalType": "address",
          "name": "sender",
          "type": "address"
        },
        {
          "internalType": "uint256",
          "name": "tokenId",
          "type": "uint256"
        },
        {
          "internalType": "address",
          "name": "owner",
          "type": "address"
        }
      ],
      "name": "ERC721IncorrectOwner",
      "type": "error"
    },
    {
      "inputs": [
        {
          "internalType": "address",
          "name": "operator",
          "type": "address"
        },
        {
          "internalType": "uint256",
          "name": "tokenId",
          "type": "uint256"
        }
      ],
      "name": "ERC721InsufficientApproval",
      "type": "error"
    },
    {
      "inputs": [
        {
          "internalType": "address",
          "name": "approver",
          "type": "address"
        }
      ],
      "name": "ERC721InvalidApprover",
      "type": "error"
    },
    {
      "inputs": [
        {
          "internalType": "address",
          "name": "operator",
          "type": "address"
        }
      ],
      "name": "ERC721InvalidOperator",
      "type": "error"
    },
    {
      "inputs": [
        {
          "internalType": "address",
          "name": "owner",
          "type": "address"
        }
      ],
      "name": "ERC721InvalidOwner",
      "type": "error"
    },
    {
      "inputs": [
        {
          "internalType": "address",
          "name": "receiver",
          "type": "address"
        }
      ],
      "name": "ERC721InvalidReceiver",
      "type": "error"
    },
    {
      "inputs": [
        {
          "internalType": "address",
          "name": "sender",
          "type": "address"
        }
      ],
      "name": "ERC721InvalidSender",
      "type": "error"
    },
    {
      "inputs": [
        {
          "internalType": "uint256",
          "name": "tokenId",
          "type": "uint256"
        }
      ],
      "name": "ERC721NonexistentToken",
      "type": "error"
    },
    {
      "anonymous": false,
      "inputs": [
        {
          "indexed": true,
          "internalType": "address",
          "name": "owner",
          "type": "address"
        },
        {
          "indexed": true,
          "internalType": "address",
          "name": "approved",
          "type": "address"
        },
        {
          "indexed": true,
          "internalType": "uint256",
          "name": "tokenId",
          "type": "uint256"
        }
      ],
      "name": "Approval",
      "type": "event"
    },
    {
      "anonymous": false,
      "inputs": [
        {
          "indexed": true,
          "internalType": "address",
          "name": "owner",
          "type": "address"
        },
        {
          "indexed": true,
          "internalType": "address",
          "name": "operator",
          "type": "address"
        },
        {
          "indexed": false,
          "internalType": "bool",
          "name": "approved",
          "type": "bool"
        }
      ],
      "name": "ApprovalForAll",
      "type": "event"
    },
    {
      "anonymous": false,
      "inputs": [
        {
          "indexed": true,
          "internalType": "address",
          "name": "from",
          "type": "address"
        },
        {
          "indexed": true,
          "internalType": "address",
          "name": "to",
          "type": "address"
        },
        {
          "indexed": true,
          "internalType": "uint256",
          "name": "tokenId",
          "type": "uint256"
        }
      ],
      "name": "Transfer",
      "type": "event"
    },
    {
      "inputs": [
        {
          "internalType": "address",
          "name": "to",
          "type": "address"
        },
        {
          "internalType": "uint256",
          "name": "tokenId",
          "type": "uint256"
        }
      ],
      "name": "approve",
      "outputs": [],
      "stateMutability": "nonpayable",
      "type": "function"
    },
    {
      "inputs": [
        {
          "internalType": "address",
          "name": "owner",
          "type": "address"
        }
      ],
      "name": "balanceOf",
      "outputs": [
        {
          "internalType": "uint256",
          "name": "",
          "type": "uint256"
        }
      ],
      "stateMutability": "view",
      "type": "function",
      "constant": true
    },
    {
      "inputs": [
        {
          "internalType": "uint256",
          "name": "tokenId",
          "type": "uint256"
        }
      ],
      "name": "getApproved",
      "outputs": [
        {
          "internalType": "address",
          "name": "",
          "type": "address"
        }
      ],
      "stateMutability": "view",
      "type": "function",
      "constant": true
    },
    {
      "inputs": [
        {
          "internalType": "address",
          "name": "owner",
          "type": "address"
        },
        {
          "internalType": "address",
          "name": "operator",
          "type": "address"
        }
      ],
      "name": "isApprovedForAll",
      "outputs": [
        {
          "internalType": "bool",
          "name": "",
          "type": "bool"
        }
      ],
      "stateMutability": "view",
      "type": "function",
      "constant": true
    },
    {
      "inputs": [],
      "name": "name",
      "outputs": [
        {
          "internalType": "string",
          "name": "",
          "type": "string"
        }
      ],
      "stateMutability": "view",
      "type": "function",
      "constant": true
    },
    {
      "inputs": [],
      "name": "nextTicketId",
      "outputs": [
        {
          "internalType": "uint256",
          "name": "",
          "type": "uint256"
        }
      ],
      "stateMutability": "view",
      "type": "function",
      "constant": true
    },
    {
      "inputs": [
        {
          "internalType": "uint256",
          "name": "tokenId",
          "type": "uint256"
        }
      ],
      "name": "ownerOf",
      "outputs": [
        {
          "internalType": "address",
          "name": "",
          "type": "address"
        }
      ],
      "stateMutability": "view",
      "type": "function",
      "constant": true
    },
    {
      "inputs": [
        {
          "internalType": "address",
          "name": "from",
          "type": "address"
        },
        {
          "internalType": "address",
          "name": "to",
          "type": "address"
        },
        {
          "internalType": "uint256",
          "name": "tokenId",
          "type": "uint256"
        }
      ],
      "name": "safeTransferFrom",
      "outputs": [],
      "stateMutability": "nonpayable",
      "type": "function"
    },
    {
      "inputs": [
        {
          "internalType": "address",
          "name": "from",
          "type": "address"
        },
        {
          "internalType": "address",
          "name": "to",
          "type": "address"
        },
        {
          "internalType": "uint256",
          "name": "tokenId",
          "type": "uint256"
        },
        {
          "internalType": "bytes",
          "name": "data",
          "type": "bytes"
        }
      ],
      "name": "safeTransferFrom",
      "outputs": [],
      "stateMutability": "nonpayable",
      "type": "function"
    },
    {
      "inputs": [
        {
          "internalType": "address",
          "name": "operator",
          "type": "address"
        },
        {
          "internalType": "bool",
          "name": "approved",
          "type": "bool"
        }
      ],
      "name": "setApprovalForAll",
      "outputs": [],
      "stateMutability": "nonpayable",
      "type": "function"
    },
    {
      "inputs": [
        {
          "internalType": "bytes4",
          "name": "interfaceId",
          "type": "bytes4"
        }
      ],
      "name": "supportsInterface",
      "outputs": [
        {
          "internalType": "bool",
          "name": "",
          "type": "bool"
        }
      ],
      "stateMutability": "view",
      "type": "function",
      "constant": true
    },
    {
      "inputs": [],
      "name": "symbol",
      "outputs": [
        {
          "internalType": "string",
          "name": "",
          "type": "string"
        }
      ],
      "stateMutability": "view",
      "type": "function",
      "constant": true
    },
    {
      "inputs": [
        {
          "internalType": "uint256",
          "name": "",
          "type": "uint256"
        }
      ],
      "name": "tickets",
      "outputs": [
        {
          "internalType": "address",
          "name": "owner",
          "type": "address"
        },
        {
          "internalType": "string",
          "name": "uid",
          "type": "string"
        },
        {
          "internalType": "string",
          "name": "title",
          "type": "string"
        },
        {
          "internalType": "string",
          "name": "seat",
          "type": "string"
        },
        {
          "internalType": "string",
          "name": "time",
          "type": "string"
        },
        {
          "internalType": "uint256",
          "name": "price",
          "type": "uint256"
        }
      ],
      "stateMutability": "view",
      "type": "function",
      "constant": true
    },
    {
      "inputs": [
        {
          "internalType": "uint256",
          "name": "tokenId",
          "type": "uint256"
        }
      ],
      "name": "tokenURI",
      "outputs": [
        {
          "internalType": "string",
          "name": "",
          "type": "string"
        }
      ],
      "stateMutability": "view",
      "type": "function",
      "constant": true
    },
    {
      "inputs": [
        {
          "internalType": "address",
          "name": "from",
          "type": "address"
        },
        {
          "internalType": "address",
          "name": "to",
          "type": "address"
        },
        {
          "internalType": "uint256",
          "name": "tokenId",
          "type": "uint256"
        }
      ],
      "name": "transferFrom",
      "outputs": [],
      "stateMutability": "nonpayable",
      "type": "function"
    },
    {
      "inputs": [
        {
          "internalType": "string",
          "name": "uid",
          "type": "string"
        },
        {
          "internalType": "string",
          "name": "title",
          "type": "string"
        },
        {
          "internalType": "string",
          "name": "seat",
          "type": "string"
        },
        {
          "internalType": "string",
          "name": "time",
          "type": "string"
        },
        {
          "internalType": "uint256",
          "name": "amount",
          "type": "uint256"
        },
        {
          "internalType": "uint256",
          "name": "price",
          "type": "uint256"
        }
      ],
      "name": "createTicket",
      "outputs": [],
      "stateMutability": "nonpayable",
      "type": "function"
    },
    {
      "inputs": [],
      "name": "getAllTickets",
      "outputs": [
        {
          "components": [
            {
              "internalType": "address",
              "name": "owner",
              "type": "address"
            },
            {
              "internalType": "string",
              "name": "uid",
              "type": "string"
            },
            {
              "internalType": "string",
              "name": "title",
              "type": "string"
            },
            {
              "internalType": "string",
              "name": "seat",
              "type": "string"
            },
            {
              "internalType": "string",
              "name": "time",
              "type": "string"
            },
            {
              "internalType": "uint256",
              "name": "price",
              "type": "uint256"
            }
          ],
          "internalType": "struct Tickets.Ticket[]",
          "name": "",
          "type": "tuple[]"
        }
      ],
      "stateMutability": "view",
      "type": "function",
      "constant": true
    },
    {
      "inputs": [
        {
          "internalType": "string",
          "name": "uid",
          "type": "string"
        }
      ],
      "name": "getTicketIds",
      "outputs": [
        {
          "internalType": "uint256[]",
          "name": "",
          "type": "uint256[]"
        }
      ],
      "stateMutability": "view",
      "type": "function",
      "constant": true
    },
    {
      "inputs": [
        {
          "internalType": "uint256",
          "name": "ticketId",
          "type": "uint256"
        }
      ],
      "name": "purchaseTicket",
      "outputs": [],
      "stateMutability": "payable",
      "type": "function",
      "payable": true
    },
    {
      "inputs": [
        {
          "internalType": "address",
          "name": "owner",
          "type": "address"
        }
      ],
      "name": "getTicketsByOwnerId",
      "outputs": [
        {
          "components": [
            {
              "internalType": "address",
              "name": "owner",
              "type": "address"
            },
            {
              "internalType": "string",
              "name": "uid",
              "type": "string"
            },
            {
              "internalType": "string",
              "name": "title",
              "type": "string"
            },
            {
              "internalType": "string",
              "name": "seat",
              "type": "string"
            },
            {
              "internalType": "string",
              "name": "time",
              "type": "string"
            },
            {
              "internalType": "uint256",
              "name": "price",
              "type": "uint256"
            }
          ],
          "internalType": "struct Tickets.Ticket[]",
          "name": "",
          "type": "tuple[]"
        }
      ],
      "stateMutability": "view",
      "type": "function",
      "constant": true
    }
  ],
  "bytecode": "0x60806040523480156200001157600080fd5b506040518060400160405280600681526020017f5469636b657400000000000000000000000000000000000000000000000000008152506040518060400160405280600681526020017f5449434b4554000000000000000000000000000000000000000000000000000081525081600090816200008f919062000324565b508060019081620000a1919062000324565b5050506200040b565b600081519050919050565b7f4e487b7100000000000000000000000000000000000000000000000000000000600052604160045260246000fd5b7f4e487b7100000000000000000000000000000000000000000000000000000000600052602260045260246000fd5b600060028204905060018216806200012c57607f821691505b602082108103620001425762000141620000e4565b5b50919050565b60008190508160005260206000209050919050565b60006020601f8301049050919050565b600082821b905092915050565b600060088302620001ac7fffffffffffffffffffffffffffffffffffffffffffffffffffffffffffffffff826200016d565b620001b886836200016d565b95508019841693508086168417925050509392505050565b6000819050919050565b6000819050919050565b600062000205620001ff620001f984620001d0565b620001da565b620001d0565b9050919050565b6000819050919050565b6200022183620001e4565b6200023962000230826200020c565b8484546200017a565b825550505050565b600090565b6200025062000241565b6200025d81848462000216565b505050565b5b8181101562000285576200027960008262000246565b60018101905062000263565b5050565b601f821115620002d4576200029e8162000148565b620002a9846200015d565b81016020851015620002b9578190505b620002d1620002c8856200015d565b83018262000262565b50505b505050565b600082821c905092915050565b6000620002f960001984600802620002d9565b1980831691505092915050565b6000620003148383620002e6565b9150826002028217905092915050565b6200032f82620000aa565b67ffffffffffffffff8111156200034b576200034a620000b5565b5b62000357825462000113565b6200036482828562000289565b600060209050601f8311600181146200039c576000841562000387578287015190505b62000393858262000306565b86555062000403565b601f198416620003ac8662000148565b60005b82811015620003d657848901518255600182019150602085019450602081019050620003af565b86831015620003f65784890151620003f2601f891682620002e6565b8355505b6001600288020188555050505b505050505050565b613617806200041b6000396000f3fe60806040526004361061011f5760003560e01c80636352211e116100a0578063b88d4fde11610064578063b88d4fde14610424578063b948348c1461044d578063c87b56dd14610469578063e825fd81146104a6578063e985e9c5146104cf5761011f565b80636352211e1461031957806370a082311461035657806395d89b4114610393578063a10ca809146103be578063a22cb465146103fb5761011f565b8063095ea7b3116100e7578063095ea7b31461023157806323b872dd1461025a57806342842e0e1461028357806350b44712146102ac5780636031a52f146102ee5761011f565b806301ffc9a71461012457806303e96fe31461016157806305d1cc301461018c57806306fdde03146101c9578063081812fc146101f4575b600080fd5b34801561013057600080fd5b5061014b60048036038101906101469190612485565b61050c565b60405161015891906124cd565b60405180910390f35b34801561016d57600080fd5b506101766105ee565b6040516101839190612732565b60405180910390f35b34801561019857600080fd5b506101b360048036038101906101ae9190612780565b610956565b6040516101c09190612732565b60405180910390f35b3480156101d557600080fd5b506101de610d3a565b6040516101eb91906127f7565b60405180910390f35b34801561020057600080fd5b5061021b60048036038101906102169190612845565b610dcc565b6040516102289190612881565b60405180910390f35b34801561023d57600080fd5b506102586004803603810190610253919061289c565b610de8565b005b34801561026657600080fd5b50610281600480360381019061027c91906128dc565b610dfe565b005b34801561028f57600080fd5b506102aa60048036038101906102a591906128dc565b610f00565b005b3480156102b857600080fd5b506102d360048036038101906102ce9190612845565b610f20565b6040516102e59695949392919061293e565b60405180910390f35b3480156102fa57600080fd5b5061030361119c565b60405161031091906129bb565b60405180910390f35b34801561032557600080fd5b50610340600480360381019061033b9190612845565b6111a2565b60405161034d9190612881565b60405180910390f35b34801561036257600080fd5b5061037d60048036038101906103789190612780565b6111b4565b60405161038a91906129bb565b60405180910390f35b34801561039f57600080fd5b506103a861126e565b6040516103b591906127f7565b60405180910390f35b3480156103ca57600080fd5b506103e560048036038101906103e09190612b0b565b611300565b6040516103f29190612c03565b60405180910390f35b34801561040757600080fd5b50610422600480360381019061041d9190612c51565b6113e4565b005b34801561043057600080fd5b5061044b60048036038101906104469190612d32565b6113fa565b005b61046760048036038101906104629190612845565b611417565b005b34801561047557600080fd5b50610490600480360381019061048b9190612845565b611545565b60405161049d91906127f7565b60405180910390f35b3480156104b257600080fd5b506104cd60048036038101906104c89190612db5565b6115ae565b005b3480156104db57600080fd5b506104f660048036038101906104f19190612eb2565b6116f1565b60405161050391906124cd565b60405180910390f35b60007f80ac58cd000000000000000000000000000000000000000000000000000000007bffffffffffffffffffffffffffffffffffffffffffffffffffffffff1916827bffffffffffffffffffffffffffffffffffffffffffffffffffffffff191614806105d757507f5b5e139f000000000000000000000000000000000000000000000000000000007bffffffffffffffffffffffffffffffffffffffffffffffffffffffff1916827bffffffffffffffffffffffffffffffffffffffffffffffffffffffff1916145b806105e757506105e682611785565b5b9050919050565b6060600060075467ffffffffffffffff81111561060e5761060d6129e0565b5b60405190808252806020026020018201604052801561064757816020015b6106346123cd565b81526020019060019003908161062c5790505b50905060005b60075481101561094e57600660008281526020019081526020016000206040518060c00160405290816000820160009054906101000a900473ffffffffffffffffffffffffffffffffffffffff1673ffffffffffffffffffffffffffffffffffffffff1673ffffffffffffffffffffffffffffffffffffffff1681526020016001820180546106db90612f21565b80601f016020809104026020016040519081016040528092919081815260200182805461070790612f21565b80156107545780601f1061072957610100808354040283529160200191610754565b820191906000526020600020905b81548152906001019060200180831161073757829003601f168201915b5050505050815260200160028201805461076d90612f21565b80601f016020809104026020016040519081016040528092919081815260200182805461079990612f21565b80156107e65780601f106107bb576101008083540402835291602001916107e6565b820191906000526020600020905b8154815290600101906020018083116107c957829003601f168201915b505050505081526020016003820180546107ff90612f21565b80601f016020809104026020016040519081016040528092919081815260200182805461082b90612f21565b80156108785780601f1061084d57610100808354040283529160200191610878565b820191906000526020600020905b81548152906001019060200180831161085b57829003601f168201915b5050505050815260200160048201805461089190612f21565b80601f01602080910402602001604051908101604052809291908181526020018280546108bd90612f21565b801561090a5780601f106108df5761010080835404028352916020019161090a565b820191906000526020600020905b8154815290600101906020018083116108ed57829003601f168201915b505050505081526020016005820154815250508282815181106109305761092f612f52565b5b6020026020010181905250808061094690612fb0565b91505061064d565b508091505090565b6060600060075467ffffffffffffffff811115610976576109756129e0565b5b6040519080825280602002602001820160405280156109af57816020015b61099c6123cd565b8152602001906001900390816109945790505b5090506000805b600754811015610d2f578473ffffffffffffffffffffffffffffffffffffffff166006600083815260200190815260200160002060000160009054906101000a900473ffffffffffffffffffffffffffffffffffffffff1673ffffffffffffffffffffffffffffffffffffffff1603610d1c57600660008281526020019081526020016000206040518060c00160405290816000820160009054906101000a900473ffffffffffffffffffffffffffffffffffffffff1673ffffffffffffffffffffffffffffffffffffffff1673ffffffffffffffffffffffffffffffffffffffff168152602001600182018054610aad90612f21565b80601f0160208091040260200160405190810160405280929190818152602001828054610ad990612f21565b8015610b265780601f10610afb57610100808354040283529160200191610b26565b820191906000526020600020905b815481529060010190602001808311610b0957829003601f168201915b50505050508152602001600282018054610b3f90612f21565b80601f0160208091040260200160405190810160405280929190818152602001828054610b6b90612f21565b8015610bb85780601f10610b8d57610100808354040283529160200191610bb8565b820191906000526020600020905b815481529060010190602001808311610b9b57829003601f168201915b50505050508152602001600382018054610bd190612f21565b80601f0160208091040260200160405190810160405280929190818152602001828054610bfd90612f21565b8015610c4a5780601f10610c1f57610100808354040283529160200191610c4a565b820191906000526020600020905b815481529060010190602001808311610c2d57829003601f168201915b50505050508152602001600482018054610c6390612f21565b80601f0160208091040260200160405190810160405280929190818152602001828054610c8f90612f21565b8015610cdc5780601f10610cb157610100808354040283529160200191610cdc565b820191906000526020600020905b815481529060010190602001808311610cbf57829003601f168201915b50505050508152602001600582015481525050838381518110610d0257610d01612f52565b5b60200260200101819052508180610d1890612fb0565b9250505b8080610d2790612fb0565b9150506109b6565b508192505050919050565b606060008054610d4990612f21565b80601f0160208091040260200160405190810160405280929190818152602001828054610d7590612f21565b8015610dc25780601f10610d9757610100808354040283529160200191610dc2565b820191906000526020600020905b815481529060010190602001808311610da557829003601f168201915b5050505050905090565b6000610dd7826117ef565b50610de182611877565b9050919050565b610dfa8282610df56118b4565b6118bc565b5050565b600073ffffffffffffffffffffffffffffffffffffffff168273ffffffffffffffffffffffffffffffffffffffff1603610e705760006040517f64a0ae92000000000000000000000000000000000000000000000000000000008152600401610e679190612881565b60405180910390fd5b6000610e848383610e7f6118b4565b6118ce565b90508373ffffffffffffffffffffffffffffffffffffffff168173ffffffffffffffffffffffffffffffffffffffff1614610efa578382826040517f64283d7b000000000000000000000000000000000000000000000000000000008152600401610ef193929190612ff8565b60405180910390fd5b50505050565b610f1b838383604051806020016040528060008152506113fa565b505050565b60066020528060005260406000206000915090508060000160009054906101000a900473ffffffffffffffffffffffffffffffffffffffff1690806001018054610f6990612f21565b80601f0160208091040260200160405190810160405280929190818152602001828054610f9590612f21565b8015610fe25780601f10610fb757610100808354040283529160200191610fe2565b820191906000526020600020905b815481529060010190602001808311610fc557829003601f168201915b505050505090806002018054610ff790612f21565b80601f016020809104026020016040519081016040528092919081815260200182805461102390612f21565b80156110705780601f1061104557610100808354040283529160200191611070565b820191906000526020600020905b81548152906001019060200180831161105357829003601f168201915b50505050509080600301805461108590612f21565b80601f01602080910402602001604051908101604052809291908181526020018280546110b190612f21565b80156110fe5780601f106110d3576101008083540402835291602001916110fe565b820191906000526020600020905b8154815290600101906020018083116110e157829003601f168201915b50505050509080600401805461111390612f21565b80601f016020809104026020016040519081016040528092919081815260200182805461113f90612f21565b801561118c5780601f106111615761010080835404028352916020019161118c565b820191906000526020600020905b81548152906001019060200180831161116f57829003601f168201915b5050505050908060050154905086565b60075481565b60006111ad826117ef565b9050919050565b60008073ffffffffffffffffffffffffffffffffffffffff168273ffffffffffffffffffffffffffffffffffffffff16036112275760006040517f89c62b6400000000000000000000000000000000000000000000000000000000815260040161121e9190612881565b60405180910390fd5b600360008373ffffffffffffffffffffffffffffffffffffffff1673ffffffffffffffffffffffffffffffffffffffff168152602001908152602001600020549050919050565b60606001805461127d90612f21565b80601f01602080910402602001604051908101604052809291908181526020018280546112a990612f21565b80156112f65780601f106112cb576101008083540402835291602001916112f6565b820191906000526020600020905b8154815290600101906020018083116112d957829003601f168201915b5050505050905090565b6060600060075467ffffffffffffffff8111156113205761131f6129e0565b5b60405190808252806020026020018201604052801561134e5781602001602082028036833780820191505090505b5090506000805b6007548110156113d95784805190602001206006600083815260200190815260200160002060010160405161138a91906130d2565b6040518091039020036113c657808383815181106113ab576113aa612f52565b5b60200260200101818152505081806113c290612fb0565b9250505b80806113d190612fb0565b915050611355565b508192505050919050565b6113f66113ef6118b4565b8383611ae8565b5050565b611405848484610dfe565b61141184848484611c57565b50505050565b60006006600083815260200190815260200160002090508060050154341015611475576040517f08c379a000000000000000000000000000000000000000000000000000000000815260040161146c90613135565b60405180910390fd5b600060616064346114869190613184565b61149091906131b5565b90508160000160009054906101000a900473ffffffffffffffffffffffffffffffffffffffff1673ffffffffffffffffffffffffffffffffffffffff166108fc829081150290604051600060405180830381858888f193505050501580156114fc573d6000803e3d6000fd5b50338260000160006101000a81548173ffffffffffffffffffffffffffffffffffffffff021916908373ffffffffffffffffffffffffffffffffffffffff160217905550505050565b6060611550826117ef565b50600061155b611e0e565b9050600081511161157b57604051806020016040528060008152506115a6565b8061158584611e25565b604051602001611596929190613233565b6040516020818303038152906040525b915050919050565b60005b828110156116e8576040518060c001604052803373ffffffffffffffffffffffffffffffffffffffff1681526020018881526020018781526020018681526020018581526020018381525060066000600754815260200190815260200160002060008201518160000160006101000a81548173ffffffffffffffffffffffffffffffffffffffff021916908373ffffffffffffffffffffffffffffffffffffffff160217905550602082015181600101908161166d9190613403565b5060408201518160020190816116839190613403565b5060608201518160030190816116999190613403565b5060808201518160040190816116af9190613403565b5060a08201518160050155905050600760008154809291906116d090612fb0565b919050555080806116e090612fb0565b9150506115b1565b50505050505050565b6000600560008473ffffffffffffffffffffffffffffffffffffffff1673ffffffffffffffffffffffffffffffffffffffff16815260200190815260200160002060008373ffffffffffffffffffffffffffffffffffffffff1673ffffffffffffffffffffffffffffffffffffffff16815260200190815260200160002060009054906101000a900460ff16905092915050565b60007f01ffc9a7000000000000000000000000000000000000000000000000000000007bffffffffffffffffffffffffffffffffffffffffffffffffffffffff1916827bffffffffffffffffffffffffffffffffffffffffffffffffffffffff1916149050919050565b6000806117fb83611ef3565b9050600073ffffffffffffffffffffffffffffffffffffffff168173ffffffffffffffffffffffffffffffffffffffff160361186e57826040517f7e27328900000000000000000000000000000000000000000000000000000000815260040161186591906129bb565b60405180910390fd5b80915050919050565b60006004600083815260200190815260200160002060009054906101000a900473ffffffffffffffffffffffffffffffffffffffff169050919050565b600033905090565b6118c98383836001611f30565b505050565b6000806118da84611ef3565b9050600073ffffffffffffffffffffffffffffffffffffffff168373ffffffffffffffffffffffffffffffffffffffff161461191c5761191b8184866120f5565b5b600073ffffffffffffffffffffffffffffffffffffffff168173ffffffffffffffffffffffffffffffffffffffff16146119ad5761195e600085600080611f30565b6001600360008373ffffffffffffffffffffffffffffffffffffffff1673ffffffffffffffffffffffffffffffffffffffff168152602001908152602001600020600082825403925050819055505b600073ffffffffffffffffffffffffffffffffffffffff168573ffffffffffffffffffffffffffffffffffffffff1614611a30576001600360008773ffffffffffffffffffffffffffffffffffffffff1673ffffffffffffffffffffffffffffffffffffffff168152602001908152602001600020600082825401925050819055505b846002600086815260200190815260200160002060006101000a81548173ffffffffffffffffffffffffffffffffffffffff021916908373ffffffffffffffffffffffffffffffffffffffff160217905550838573ffffffffffffffffffffffffffffffffffffffff168273ffffffffffffffffffffffffffffffffffffffff167fddf252ad1be2c89b69c2b068fc378daa952ba7f163c4a11628f55a4df523b3ef60405160405180910390a4809150509392505050565b600073ffffffffffffffffffffffffffffffffffffffff168273ffffffffffffffffffffffffffffffffffffffff1603611b5957816040517f5b08ba18000000000000000000000000000000000000000000000000000000008152600401611b509190612881565b60405180910390fd5b80600560008573ffffffffffffffffffffffffffffffffffffffff1673ffffffffffffffffffffffffffffffffffffffff16815260200190815260200160002060008473ffffffffffffffffffffffffffffffffffffffff1673ffffffffffffffffffffffffffffffffffffffff16815260200190815260200160002060006101000a81548160ff0219169083151502179055508173ffffffffffffffffffffffffffffffffffffffff168373ffffffffffffffffffffffffffffffffffffffff167f17307eab39ab6107e8899845ad3d59bd9653f200f220920489ca2b5937696c3183604051611c4a91906124cd565b60405180910390a3505050565b60008373ffffffffffffffffffffffffffffffffffffffff163b1115611e08578273ffffffffffffffffffffffffffffffffffffffff1663150b7a02611c9b6118b4565b8685856040518563ffffffff1660e01b8152600401611cbd949392919061352a565b6020604051808303816000875af1925050508015611cf957506040513d601f19601f82011682018060405250810190611cf6919061358b565b60015b611d7d573d8060008114611d29576040519150601f19603f3d011682016040523d82523d6000602084013e611d2e565b606091505b506000815103611d7557836040517f64a0ae92000000000000000000000000000000000000000000000000000000008152600401611d6c9190612881565b60405180910390fd5b805181602001fd5b63150b7a0260e01b7bffffffffffffffffffffffffffffffffffffffffffffffffffffffff1916817bffffffffffffffffffffffffffffffffffffffffffffffffffffffff191614611e0657836040517f64a0ae92000000000000000000000000000000000000000000000000000000008152600401611dfd9190612881565b60405180910390fd5b505b50505050565b606060405180602001604052806000815250905090565b606060006001611e34846121b9565b01905060008167ffffffffffffffff811115611e5357611e526129e0565b5b6040519080825280601f01601f191660200182016040528015611e855781602001600182028036833780820191505090505b509050600082602001820190505b600115611ee8578080600190039150507f3031323334353637383961626364656600000000000000000000000000000000600a86061a8153600a8581611edc57611edb613155565b5b04945060008503611e93575b819350505050919050565b60006002600083815260200190815260200160002060009054906101000a900473ffffffffffffffffffffffffffffffffffffffff169050919050565b8080611f695750600073ffffffffffffffffffffffffffffffffffffffff168273ffffffffffffffffffffffffffffffffffffffff1614155b1561209d576000611f79846117ef565b9050600073ffffffffffffffffffffffffffffffffffffffff168373ffffffffffffffffffffffffffffffffffffffff1614158015611fe457508273ffffffffffffffffffffffffffffffffffffffff168173ffffffffffffffffffffffffffffffffffffffff1614155b8015611ff75750611ff581846116f1565b155b1561203957826040517fa9fbf51f0000000000000000000000000000000000000000000000000000000081526004016120309190612881565b60405180910390fd5b811561209b57838573ffffffffffffffffffffffffffffffffffffffff168273ffffffffffffffffffffffffffffffffffffffff167f8c5be1e5ebec7d5bd14f71427d1e84f3dd0314c0f7b2291e5b200ac8c7c3b92560405160405180910390a45b505b836004600085815260200190815260200160002060006101000a81548173ffffffffffffffffffffffffffffffffffffffff021916908373ffffffffffffffffffffffffffffffffffffffff16021790555050505050565b61210083838361230c565b6121b457600073ffffffffffffffffffffffffffffffffffffffff168373ffffffffffffffffffffffffffffffffffffffff160361217557806040517f7e27328900000000000000000000000000000000000000000000000000000000815260040161216c91906129bb565b60405180910390fd5b81816040517f177e802f0000000000000000000000000000000000000000000000000000000081526004016121ab9291906135b8565b60405180910390fd5b505050565b600080600090507a184f03e93ff9f4daa797ed6e38ed64bf6a1f0100000000000000008310612217577a184f03e93ff9f4daa797ed6e38ed64bf6a1f010000000000000000838161220d5761220c613155565b5b0492506040810190505b6d04ee2d6d415b85acef81000000008310612254576d04ee2d6d415b85acef8100000000838161224a57612249613155565b5b0492506020810190505b662386f26fc10000831061228357662386f26fc10000838161227957612278613155565b5b0492506010810190505b6305f5e10083106122ac576305f5e10083816122a2576122a1613155565b5b0492506008810190505b61271083106122d15761271083816122c7576122c6613155565b5b0492506004810190505b606483106122f457606483816122ea576122e9613155565b5b0492506002810190505b600a8310612303576001810190505b80915050919050565b60008073ffffffffffffffffffffffffffffffffffffffff168373ffffffffffffffffffffffffffffffffffffffff16141580156123c457508273ffffffffffffffffffffffffffffffffffffffff168473ffffffffffffffffffffffffffffffffffffffff161480612385575061238484846116f1565b5b806123c357508273ffffffffffffffffffffffffffffffffffffffff166123ab83611877565b73ffffffffffffffffffffffffffffffffffffffff16145b5b90509392505050565b6040518060c00160405280600073ffffffffffffffffffffffffffffffffffffffff16815260200160608152602001606081526020016060815260200160608152602001600081525090565b6000604051905090565b600080fd5b600080fd5b60007fffffffff0000000000000000000000000000000000000000000000000000000082169050919050565b6124628161242d565b811461246d57600080fd5b50565b60008135905061247f81612459565b92915050565b60006020828403121561249b5761249a612423565b5b60006124a984828501612470565b91505092915050565b60008115159050919050565b6124c7816124b2565b82525050565b60006020820190506124e260008301846124be565b92915050565b600081519050919050565b600082825260208201905092915050565b6000819050602082019050919050565b600073ffffffffffffffffffffffffffffffffffffffff82169050919050565b600061253f82612514565b9050919050565b61254f81612534565b82525050565b600081519050919050565b600082825260208201905092915050565b60005b8381101561258f578082015181840152602081019050612574565b60008484015250505050565b6000601f19601f8301169050919050565b60006125b782612555565b6125c18185612560565b93506125d1818560208601612571565b6125da8161259b565b840191505092915050565b6000819050919050565b6125f8816125e5565b82525050565b600060c0830160008301516126166000860182612546565b506020830151848203602086015261262e82826125ac565b9150506040830151848203604086015261264882826125ac565b9150506060830151848203606086015261266282826125ac565b9150506080830151848203608086015261267c82826125ac565b91505060a083015161269160a08601826125ef565b508091505092915050565b60006126a883836125fe565b905092915050565b6000602082019050919050565b60006126c8826124e8565b6126d281856124f3565b9350836020820285016126e485612504565b8060005b858110156127205784840389528151612701858261269c565b945061270c836126b0565b925060208a019950506001810190506126e8565b50829750879550505050505092915050565b6000602082019050818103600083015261274c81846126bd565b905092915050565b61275d81612534565b811461276857600080fd5b50565b60008135905061277a81612754565b92915050565b60006020828403121561279657612795612423565b5b60006127a48482850161276b565b91505092915050565b600082825260208201905092915050565b60006127c982612555565b6127d381856127ad565b93506127e3818560208601612571565b6127ec8161259b565b840191505092915050565b6000602082019050818103600083015261281181846127be565b905092915050565b612822816125e5565b811461282d57600080fd5b50565b60008135905061283f81612819565b92915050565b60006020828403121561285b5761285a612423565b5b600061286984828501612830565b91505092915050565b61287b81612534565b82525050565b60006020820190506128966000830184612872565b92915050565b600080604083850312156128b3576128b2612423565b5b60006128c18582860161276b565b92505060206128d285828601612830565b9150509250929050565b6000806000606084860312156128f5576128f4612423565b5b60006129038682870161276b565b93505060206129148682870161276b565b925050604061292586828701612830565b9150509250925092565b612938816125e5565b82525050565b600060c0820190506129536000830189612872565b818103602083015261296581886127be565b9050818103604083015261297981876127be565b9050818103606083015261298d81866127be565b905081810360808301526129a181856127be565b90506129b060a083018461292f565b979650505050505050565b60006020820190506129d0600083018461292f565b92915050565b600080fd5b600080fd5b7f4e487b7100000000000000000000000000000000000000000000000000000000600052604160045260246000fd5b612a188261259b565b810181811067ffffffffffffffff82111715612a3757612a366129e0565b5b80604052505050565b6000612a4a612419565b9050612a568282612a0f565b919050565b600067ffffffffffffffff821115612a7657612a756129e0565b5b612a7f8261259b565b9050602081019050919050565b82818337600083830152505050565b6000612aae612aa984612a5b565b612a40565b905082815260208101848484011115612aca57612ac96129db565b5b612ad5848285612a8c565b509392505050565b600082601f830112612af257612af16129d6565b5b8135612b02848260208601612a9b565b91505092915050565b600060208284031215612b2157612b20612423565b5b600082013567ffffffffffffffff811115612b3f57612b3e612428565b5b612b4b84828501612add565b91505092915050565b600081519050919050565b600082825260208201905092915050565b6000819050602082019050919050565b6000612b8c83836125ef565b60208301905092915050565b6000602082019050919050565b6000612bb082612b54565b612bba8185612b5f565b9350612bc583612b70565b8060005b83811015612bf6578151612bdd8882612b80565b9750612be883612b98565b925050600181019050612bc9565b5085935050505092915050565b60006020820190508181036000830152612c1d8184612ba5565b905092915050565b612c2e816124b2565b8114612c3957600080fd5b50565b600081359050612c4b81612c25565b92915050565b60008060408385031215612c6857612c67612423565b5b6000612c768582860161276b565b9250506020612c8785828601612c3c565b9150509250929050565b600067ffffffffffffffff821115612cac57612cab6129e0565b5b612cb58261259b565b9050602081019050919050565b6000612cd5612cd084612c91565b612a40565b905082815260208101848484011115612cf157612cf06129db565b5b612cfc848285612a8c565b509392505050565b600082601f830112612d1957612d186129d6565b5b8135612d29848260208601612cc2565b91505092915050565b60008060008060808587031215612d4c57612d4b612423565b5b6000612d5a8782880161276b565b9450506020612d6b8782880161276b565b9350506040612d7c87828801612830565b925050606085013567ffffffffffffffff811115612d9d57612d9c612428565b5b612da987828801612d04565b91505092959194509250565b60008060008060008060c08789031215612dd257612dd1612423565b5b600087013567ffffffffffffffff811115612df057612def612428565b5b612dfc89828a01612add565b965050602087013567ffffffffffffffff811115612e1d57612e1c612428565b5b612e2989828a01612add565b955050604087013567ffffffffffffffff811115612e4a57612e49612428565b5b612e5689828a01612add565b945050606087013567ffffffffffffffff811115612e7757612e76612428565b5b612e8389828a01612add565b9350506080612e9489828a01612830565b92505060a0612ea589828a01612830565b9150509295509295509295565b60008060408385031215612ec957612ec8612423565b5b6000612ed78582860161276b565b9250506020612ee88582860161276b565b9150509250929050565b7f4e487b7100000000000000000000000000000000000000000000000000000000600052602260045260246000fd5b60006002820490506001821680612f3957607f821691505b602082108103612f4c57612f4b612ef2565b5b50919050565b7f4e487b7100000000000000000000000000000000000000000000000000000000600052603260045260246000fd5b7f4e487b7100000000000000000000000000000000000000000000000000000000600052601160045260246000fd5b6000612fbb826125e5565b91507fffffffffffffffffffffffffffffffffffffffffffffffffffffffffffffffff8203612fed57612fec612f81565b5b600182019050919050565b600060608201905061300d6000830186612872565b61301a602083018561292f565b6130276040830184612872565b949350505050565b600081905092915050565b60008190508160005260206000209050919050565b6000815461305c81612f21565b613066818661302f565b945060018216600081146130815760018114613096576130c9565b60ff19831686528115158202860193506130c9565b61309f8561303a565b60005b838110156130c1578154818901526001820191506020810190506130a2565b838801955050505b50505092915050565b60006130de828461304f565b915081905092915050565b7f4e6f7420656e6f7567682045746865722073656e742e00000000000000000000600082015250565b600061311f6016836127ad565b915061312a826130e9565b602082019050919050565b6000602082019050818103600083015261314e81613112565b9050919050565b7f4e487b7100000000000000000000000000000000000000000000000000000000600052601260045260246000fd5b600061318f826125e5565b915061319a836125e5565b9250826131aa576131a9613155565b5b828204905092915050565b60006131c0826125e5565b91506131cb836125e5565b92508282026131d9816125e5565b915082820484148315176131f0576131ef612f81565b5b5092915050565b600081905092915050565b600061320d82612555565b61321781856131f7565b9350613227818560208601612571565b80840191505092915050565b600061323f8285613202565b915061324b8284613202565b91508190509392505050565b60008190508160005260206000209050919050565b60006020601f8301049050919050565b600082821b905092915050565b6000600883026132b97fffffffffffffffffffffffffffffffffffffffffffffffffffffffffffffffff8261327c565b6132c3868361327c565b95508019841693508086168417925050509392505050565b6000819050919050565b60006133006132fb6132f6846125e5565b6132db565b6125e5565b9050919050565b6000819050919050565b61331a836132e5565b61332e61332682613307565b848454613289565b825550505050565b600090565b613343613336565b61334e818484613311565b505050565b5b818110156133725761336760008261333b565b600181019050613354565b5050565b601f8211156133b75761338881613257565b6133918461326c565b810160208510156133a0578190505b6133b46133ac8561326c565b830182613353565b50505b505050565b600082821c905092915050565b60006133da600019846008026133bc565b1980831691505092915050565b60006133f383836133c9565b9150826002028217905092915050565b61340c82612555565b67ffffffffffffffff811115613425576134246129e0565b5b61342f8254612f21565b61343a828285613376565b600060209050601f83116001811461346d576000841561345b578287015190505b61346585826133e7565b8655506134cd565b601f19841661347b86613257565b60005b828110156134a35784890151825560018201915060208501945060208101905061347e565b868310156134c057848901516134bc601f8916826133c9565b8355505b6001600288020188555050505b505050505050565b600081519050919050565b600082825260208201905092915050565b60006134fc826134d5565b61350681856134e0565b9350613516818560208601612571565b61351f8161259b565b840191505092915050565b600060808201905061353f6000830187612872565b61354c6020830186612872565b613559604083018561292f565b818103606083015261356b81846134f1565b905095945050505050565b60008151905061358581612459565b92915050565b6000602082840312156135a1576135a0612423565b5b60006135af84828501613576565b91505092915050565b60006040820190506135cd6000830185612872565b6135da602083018461292f565b939250505056fea2646970667358221220f2e9f91b069e2bd93fa636414a97bbb966fe86760ab59d519b49a8e08a0f7ab864736f6c63430008130033",
  "immutableReferences": {},
  "source": "// SPDX-License-Identifier: MIT\npragma solidity ^0.8.0;\n\nimport \"@openzeppelin/contracts/token/ERC721/ERC721.sol\";\nimport '@openzeppelin/contracts/access/Ownable.sol';\n\ncontract Tickets is ERC721 {\n    constructor() ERC721(\"Ticket\", \"TICKET\") {}\n\n    struct Ticket {\n        address owner;\n        string uid;\n        string title;\n        string seat;\n        string time;\n        uint256 price;\n    }\n\n    mapping(uint256 => Ticket) public tickets;\n    uint256 public nextTicketId;\n\n    function createTicket(string memory uid, string memory title, string memory seat, string memory time, uint256 amount, uint256 price) public {\n        for (uint256 i = 0; i < amount; i++) {\n          tickets[nextTicketId] = Ticket(msg.sender, uid, title, seat, time, price);\n          nextTicketId++;\n        }\n    }\n\n    function getAllTickets() public view returns (Ticket[] memory) {\n        Ticket[] memory result = new Ticket[](nextTicketId);\n        for (uint256 ticketId = 0; ticketId < nextTicketId; ticketId++) {\n            result[ticketId] = tickets[ticketId];\n        }\n        return result;\n    }\n\n    function getTicketIds(string memory uid) public view returns (uint256[] memory) {\n        uint256[] memory result = new uint256[](nextTicketId);\n        uint256 resultIndex = 0;\n        for (uint256 ticketId = 0; ticketId < nextTicketId; ticketId++) {\n            if (keccak256(bytes(tickets[ticketId].uid)) == keccak256(bytes(uid))) {\n                result[resultIndex] = ticketId;\n                resultIndex++;\n            }\n        }\n        return result;\n    }\n\n    function purchaseTicket(uint256 ticketId) public payable {\n        Ticket storage ticket = tickets[ticketId];\n        require(msg.value >= ticket.price, \"Not enough Ether sent.\");\n        \n        uint256 sellerShare = msg.value / 100 * 97;\n        payable(ticket.owner).transfer(sellerShare);\n        \n        //   \n        ticket.owner = msg.sender;\n    }\n\n    function getTicketsByOwnerId(address owner) public view returns (Ticket[] memory) {\n        Ticket[] memory result = new Ticket[](nextTicketId);\n        uint256 resultIndex = 0;\n        for (uint256 ticketId = 0; ticketId < nextTicketId; ticketId++) {\n            if (tickets[ticketId].owner == owner) {\n                result[resultIndex] = tickets[ticketId];\n                resultIndex++;\n            }\n        }\n        return result;\n    }\n}\n",
  "sourcePath": "/Users/seongbin/Desktop/Folder/Project/securityprotject/blockchain_v2/contracts/Tickets.sol",
  "compiler": {
    "name": "solc",
    "version": "0.8.19+commit.7dd6d404.Emscripten.clang"
  },
  "schemaVersion": "3.4.16",
  "updatedAt": "2023-11-25T00:10:41.075Z",
  "networkType": "ethereum",
  "devdoc": {
    "errors": {
      "ERC721IncorrectOwner(address,uint256,address)": [
        {
          "details": "Indicates an error related to the ownership over a particular token. Used in transfers.",
          "params": {
            "owner": "Address of the current owner of a token.",
            "sender": "Address whose tokens are being transferred.",
            "tokenId": "Identifier number of a token."
          }
        }
      ],
      "ERC721InsufficientApproval(address,uint256)": [
        {
          "details": "Indicates a failure with the `operator`s approval. Used in transfers.",
          "params": {
            "operator": "Address that may be allowed to operate on tokens without being their owner.",
            "tokenId": "Identifier number of a token."
          }
        }
      ],
      "ERC721InvalidApprover(address)": [
        {
          "details": "Indicates a failure with the `approver` of a token to be approved. Used in approvals.",
          "params": {
            "approver": "Address initiating an approval operation."
          }
        }
      ],
      "ERC721InvalidOperator(address)": [
        {
          "details": "Indicates a failure with the `operator` to be approved. Used in approvals.",
          "params": {
            "operator": "Address that may be allowed to operate on tokens without being their owner."
          }
        }
      ],
      "ERC721InvalidOwner(address)": [
        {
          "details": "Indicates that an address can't be an owner. For example, `address(0)` is a forbidden owner in EIP-20. Used in balance queries.",
          "params": {
            "owner": "Address of the current owner of a token."
          }
        }
      ],
      "ERC721InvalidReceiver(address)": [
        {
          "details": "Indicates a failure with the token `receiver`. Used in transfers.",
          "params": {
            "receiver": "Address to which tokens are being transferred."
          }
        }
      ],
      "ERC721InvalidSender(address)": [
        {
          "details": "Indicates a failure with the token `sender`. Used in transfers.",
          "params": {
            "sender": "Address whose tokens are being transferred."
          }
        }
      ],
      "ERC721NonexistentToken(uint256)": [
        {
          "details": "Indicates a `tokenId` whose `owner` is the zero address.",
          "params": {
            "tokenId": "Identifier number of a token."
          }
        }
      ]
    },
    "events": {
      "Approval(address,address,uint256)": {
        "details": "Emitted when `owner` enables `approved` to manage the `tokenId` token."
      },
      "ApprovalForAll(address,address,bool)": {
        "details": "Emitted when `owner` enables or disables (`approved`) `operator` to manage all of its assets."
      },
      "Transfer(address,address,uint256)": {
        "details": "Emitted when `tokenId` token is transferred from `from` to `to`."
      }
    },
    "kind": "dev",
    "methods": {
      "approve(address,uint256)": {
        "details": "See {IERC721-approve}."
      },
      "balanceOf(address)": {
        "details": "See {IERC721-balanceOf}."
      },
      "getApproved(uint256)": {
        "details": "See {IERC721-getApproved}."
      },
      "isApprovedForAll(address,address)": {
        "details": "See {IERC721-isApprovedForAll}."
      },
      "name()": {
        "details": "See {IERC721Metadata-name}."
      },
      "ownerOf(uint256)": {
        "details": "See {IERC721-ownerOf}."
      },
      "safeTransferFrom(address,address,uint256)": {
        "details": "See {IERC721-safeTransferFrom}."
      },
      "safeTransferFrom(address,address,uint256,bytes)": {
        "details": "See {IERC721-safeTransferFrom}."
      },
      "setApprovalForAll(address,bool)": {
        "details": "See {IERC721-setApprovalForAll}."
      },
      "supportsInterface(bytes4)": {
        "details": "See {IERC165-supportsInterface}."
      },
      "symbol()": {
        "details": "See {IERC721Metadata-symbol}."
      },
      "tokenURI(uint256)": {
        "details": "See {IERC721Metadata-tokenURI}."
      },
      "transferFrom(address,address,uint256)": {
        "details": "See {IERC721-transferFrom}."
      }
    },
    "version": 1
  },
  "userdoc": {
    "kind": "user",
    "methods": {},
    "version": 1
  }
}